:0C0000000C943C000C9400000C940000D8
:10000C000C9400000C9400000C9400000C94000064
:10001C000C9400000C9400000C9400000C94000054
:10002C000C9400000C9400000C9400000C94000044
:10003C000C9400000C9400000C9400000C94000034
:10004C000C9400000C940000414243444546474840
:10005C00494A4B4C4D4E4F5051525354555657588C
:10006C00595A80C0020060016E000000F894EE271F
:10007C00ECBBF1E0FBBFEBBFE5BF8DE0A2E0BB2723
:10008C00ED938A95E9F780E094E0A0E6ED93019773
:10009C00E9F7E0E7F0E085919591009761F0A59183
:1000AC00B59105901590BF01F00105900D92019747
:1000BC00E1F7FB01F0CFEFE5EDBFE4E0EEBFC0E60A
:1000CC00D1E00C9469006A978AE1A0E0B0E0E4E525
:1000DC00F0E00E942701EFEFE4BBE0E0E5BBA0E11C
:1000EC0071D000E010E00B31E0E01E07F4F40031B9
:1000FC00E0E01E0744F40A93A0E039D0DE01A00F23
:10010C00B11FAC910AC0DE01A00FB11F3C91E02FD2
:10011C00E051EA93A1E02BD0A32F40D0A8ECB0E0A3
:10012C000E941D010F5F1F4FDECFDBCFFFCFAA93C5
:10013C00E5B3EF70AE2FE881E07FEA2BE5BB82E000
:10014C008A95F1F7AA9A82E08A95F1F7AA9882E04B
:10015C008A95F1F75FC0AA93A881E9DFE881E2955F
:10016C00E883A881E4DF81E18A95F1F753C0AA9373
:10017C00E881F0E0E05AFE4FE081A981AE0FEBDFA1
:10018C005980488022960895A2E046D0ACE0E3DF87
:10019C00A1E042D0E0E04E2E5E2E0895AA93A881F5
:1001AC00AA3011F0571440F0E0E0EA934394A42DE8
:1001BC00DEDFA881AA3071F15394A89AA881CBDF15
:1001CC00A89828C0AA93E4B3E06FE4BBA29AA09AC3
:1001DC00A19AAA98A898A9987880E881E058E09309
:1001EC006201E881E054E0936301A4E1B0E00E9475
:1001FC001D0117D016D015D0A0E299DF81E28A95A7
:10020C00F1F7A8E2A8DFA4E0A6DFA5E8A4DFA6E04A
:10021C00A2DFBADF219608959EDFA3E0B0E00C9434
:10022C001D01A0E384DF81E28A95F1F70895109611
:10023C0039F08AEF90E00197F1F7A8951197C9F77B
:10024C000895AC0FBD1F05900D928A95E1F70895A6
:00000001FF
