:100000000C943E000C9400000C9400000C94000032
:100010000C9400000C9400000C9400000C94000060
:100020000C94E0000C946B000C9400000C94000005
:100030000C9400000C9400000C9400000C94000040
:100040000C9400000C9400000C9400000C94000030
:100050000C940000FFFF3F065B4F666D7D077F67D6
:10006000FE00FD00FB0011010200040054000A0024
:100070006001560008006A0160000000F894EE2755
:10008000ECBBF1E0FBBFEBBFE5BF8DE0A2E0BB271F
:10009000ED938A95E9F780E094E0A0E6ED9301976F
:1000A000E9F7E8E6F0E085919591009761F0A59178
:1000B000B59105901590BF01F00105900D92019743
:1000C000E1F7FB01F0CFEFE5EDBFE4E0EEBFC0E606
:1000D000D1E00C94F8000A921A92FA926A937A93F9
:1000E0008A939A93AA93BA93EA93FA93EFB7EA930F
:1000F000E4E6E2BFF30131963F01E3E0F0E0E6150C
:10010000F70509F04FC0D201EAE0F0E00E94440197
:100110004F01E0916A01E5BBA0E6B1E0A80DB91D71
:1001200081D0E4E6F0E00E944401DF01EAE0F0E083
:100130000E943F015F01E0916C01E5BBA0E6B1E0E8
:10014000AA0DBB1D6FD0E8EEF3E00E9444016F01E1
:10015000E0916E01E5BBA0E6B1E0AC0DBD1D62D043
:10016000E8EEF3E00E944401DF01E4E6F0E00E94E3
:100170003F01E0937201F0937301E0917001E5BBE0
:10018000E0917201F0917301E05AFE4FE081E2BB11
:10019000ABE4B0E00E941E01EFEFE5BBE0E0E2BBA4
:1001A00066247724E991EFBFF991E991B991A9917A
:1001B0009991899179916991F9901990099018957F
:1001C000EA93FA93EFB7EA93EBE0EDBDECEDECBD0B
:1001D000E0E1F7E24E165F0624F4F20131962F01BA
:1001E00002C044245524E991EFBFF991E991189593
:1001F000EFE0E4BBE0E0E5BBEFE7E1BBE0E0E2BB62
:10020000E5E0E3BFE4E6E2BFE0E0ECBFEFBDE3E042
:10021000EEBDEBE0EDBDECEDECBDE5E0E9BF7894C3
:10022000FFCFFFCFEC91E2BBABE4B0E00E941E0138
:10023000EFEFE5BBE0E0E2BBD2010895109639F0A4
:1002400080ED97E00197F1F7A8951197C9F7089508
:10025000F195E195F04008950024112490E1AA0F52
:10026000BB1F001C111C0E1A1F0A18F40E0E1F1EB5
:1002700001C0A1609A9599F7FD01D001089512D0AF
:10028000EBDF0EF4E5DF0895E894B7FF04C0A09516
:10029000B09511966894F7FDDBDFDEDFFD010EF40B
:1002A000D7DF0895E894F7FF02C0D2DF6894B7FF64
:1002B00006C0A095B095119600F8039400FA089531
:00000001FF
