:080000000C942F000C94000089
:100008000C9400000C9400000C9400000C94000068
:100018000C9400000C9400000C9400000C945C00FC
:100028000C9400000C9400000C9400000C94000048
:100038000C9400000C9400000C9400000C94000038
:100048000C9400000C9400000C94000000000200C6
:10005800040054000000F894EE27ECBBF1E0FBBF6D
:10006800EBBFE5BF8DE0A2E0BB27ED938A95E9F7EA
:1000780080E094E0A0E6ED930197E9F7E6E5F0E08B
:1000880085919591009761F0A591B591059015908E
:10009800BF01F00105900D920197E1F7FB01F0CF48
:1000A800EFE5EDBFE4E0EEBFC0E6D1E00C949700C9
:1000B8000A921A92FA926A937A938A939A93AA93D3
:1000C800BA93EA93FA93EFB7EA93E8E3E2BFF2014F
:1000D80031962F01E4E6F0E0E415F505A1F49A99CC
:1000E80010C0E9E036D0E0E034D0EAE032D0E0E019
:1000F80030D0E6E02ED0E0E02CD0E5E02AD0E0E0F9
:1001080028D044245524E8E3E2BFE991EFBFF991F0
:10011800E991B991A9919991899179916991F99008
:10012800199009901895EFE0EABBE0E0EBBBE4BB5F
:10013800E4E0E5BBE1E0E3BFE8E3E2BFE0E0ECBF19
:10014800E1E0E9BFE0E8E8B9E0E0E0BF7894FFCF9C
:10015800FFCFEBBBA5E0B0E00C94B200109639F0ED
:1001680088EE93E00197F1F7A8951197C9F70895DC
:00000001FF
