:0E0000000C942A000C9400000C9400000C9448
:10000E0000000C9400000C9400000C9400000C9462
:10001E0000000C9400000C9445000C9400000C940D
:10002E0000000C9400000C9400000C9400000C9442
:10003E0000000C9400000C9400000C9400000C9432
:10004E0000000C940000F894EE27ECBBF1E0FBBF2F
:10005E00EBBFE5BF8DE0A2E0BB27ED938A95E9F7F4
:10006E0080E094E0A0E6ED930197E9F7EFE5EDBFB0
:10007E00E4E0EEBFC0E6D1E00C947100AA93BA930F
:10008E00EA93FA93EFB7EA93EFE1E2BFA0E6B1E0AD
:10009E00ED91FD913196FE93EE93A0916001B0919A
:1000AE006101A430EDE0BE0771F4A0E09099A1E0EB
:1000BE00E1E0EA2711F4909801C0909AE0E0E09315
:1000CE006001E0936101E991EFBFF991E991B99176
:1000DE00A9911895E1E0E1BBE0E0E2BBE2E0E3BF0D
:1000EE00E0E0E2BFECBFE1E0E9BF7894FFCFFFCFE5
:00000001FF
