:060000000C942A000C9490
:1000060000000C9400000C9400000C9400000C946A
:1000160000000C9400000C9400000C9400000C945A
:1000260000000C9400000C9400000C9400000C944A
:1000360000000C9400000C9400000C9400000C943A
:1000460000000C9400000C9400000C940000F8943E
:10005600EE27ECBBF1E0FBBFEBBFE5BF8DE0A2E016
:10006600BB27ED938A95E9F780E094E0A0E6ED934F
:100076000197E9F7EFE5EDBFE4E0EEBFC0E6D1E0BA
:100086000C94450011E003E030E820ECE0E0EABB28
:10009600E1E0EBBBEFEFE7BBE0E0E8BBE0E0E8BBAD
:1000A600C8992AC040E050E04830E0E05E077CF4A2
:1000B60018BB110FA2E3B0E00E94810008BB000F3D
:1000C600A9E1B0E00E9481004F5F5F4FEDCF40E0B5
:1000D60050E04830E0E05E077CF438BB3695A2E39A
:1000E600B0E00E94810028BB2695A9E1B0E00E94FD
:1000F60081004F5F5F4FEDCFD1CFFFCF109639F024
:1001060088EB9BE00197F1F7A8951197C9F7089539
:00000001FF
