:040000000C943F001D
:100004000C9400000C9400000C9400000C9400006C
:100014000C9400000C9400000C9400000C9400005C
:100024000C9400000C9400000C9400000C9400004C
:100034000C9400000C9400000C9400000C9400003C
:100044000C9400000C9400000C9400000C9400002C
:100054002A0048656C6C6F20576F726C640080C016
:100064000200600154000200620154000C006401AB
:1000740056000200700162000000F894EE27ECBB09
:10008400F1E0FBBFEBBFE5BF8DE0A2E0BB27ED9342
:100094008A95E9F780E094E0A0E6ED930197E9F70B
:1000A400E4E6F0E085919591009761F0A591B59112
:1000B40005901590BF01F00105900D920197E1F7AD
:1000C400FB01F0CFEFE5EDBFE4E0EEBFC0E6D1E029
:1000D4000C946C00EFEFE4BBE0E0E5BBA0E16ED074
:1000E400E1E096D0A0E6B1E058D0EFE091D0A2E6EE
:1000F400B1E053D0E3E08CD0A4E6B1E04ED0F0CF31
:10010400FFCFAA93E5B3EF70AE2FE881E07FEA2B2F
:10011400E5BB82E08A95F1F7AA9A82E08A95F1F725
:10012400AA9882E08A95F1F771C0AA93A881E9DFC1
:10013400E881E295E883A881E4DF81E18A95F1F71B
:1001440065C0AA93E881F0E0E059FE4FE081A981FF
:10015400AE0FEBDF5980488022960895A2E05BD071
:10016400ACE0E3DFA1E057D0E0E04E2E5E2E089530
:10017400AA93A881AA3011F0571448F0E0E0EA935A
:100184004394A42DDEDFA881AA3009F43FC0539420
:10019400A89AA881CADFA89839C0BA93AA931A93D7
:1001A400A981BA81ED91A983BA831E2FE03019F099
:1001B400A12FDEDFF5CF188123960895AA93E4B327
:1001C400E06FE4BBA29AA09AA19AAA98A898A998C9
:1001D4007880E881E058E0937201E881E054E0938C
:1001E4007301A4E1B0E00E9418011AD019D018D00C
:1001F400A0E287DF81E28A95F1F7A8E296DFA4E026
:1002040094DFA5E892DFA6E090DFA8DF21960895A9
:10021400EA93A0E096CF89DFA3E0B0E00C94180144
:10022400A0E36FDF81E28A95F1F70895109639F023
:100234008AEF90E00197F1F7A8951197C9F708950F
:00000001FF
