:0C0000000C9437000C9400000C940000DD
:10000C000C9400000C9400000C9400000C94000064
:10001C000C9400000C9464000C9400000C940000F0
:10002C000C9400000C9400000C9400000C94000044
:10003C000C9400000C9400000C9400000C94000034
:10004C000C9400000C940000FFFF3F065B4F666DA4
:10005C007D077F670200040054000A00600156000F
:10006C000000F894EE27ECBBF1E0FBBFEBBFE5BF63
:10007C008DE0A2E0BB27ED938A95E9F780E094E050
:10008C00A0E6ED930197E9F7E0E6F0E08591959114
:10009C00009761F0A591B59105901590BF01F00105
:1000AC0005900D920197E1F7FB01F0CFEFE5EDBF65
:1000BC00E4E0EEBFC0E6D1E00C948600AA93BA93BC
:1000CC00EA93FA93EFB7EA93EBEDECBDEBE0EDBD01
:1000DC00EAE0F0E04E165F0624F4F20131962F01AF
:1000EC0002C044245524A0E6B1E0A40DB51DEC914A
:1000FC00E2BBE991EFBFF991E991B991A9911895FA
:10010C00EFEFE1BBE0E0E2BBEFBDE3E0EEBDEBE027
:10011C00EDBDEBEDECBDE4E0E9BF7894FFCFFFCF94
:00000001FF
