:060000000C9445000C9475
:1000060000000C9400000C9400000C9400000C946A
:1000160078000C9400000C9400000C9472000C9470
:1000260000000C9400000C9400000C9400000C944A
:1000360000000C9400000C9400000C9400000C943A
:1000460000000C9400000C9400000C940000102793
:10005600E80364000A00010000100001100001001E
:1000660025642028487A29004672657175656E6395
:10007600793A000080C00B0060016E0002007F012B
:100086007A000000F894EE27ECBBF1E0FBBFEBBF73
:10009600E5BF8DE0A2E0BB27ED938A95E9F780E006
:1000A60094E0A0E6ED930197E9F7ECE7F0E085919F
:1000B6009591009761F0A591B59105901590BF01B6
:1000C600F00105900D920197E1F7FB01F0CFEFE506
:1000D600EDBFE4E0EEBFC0E6D1E00C94B500EA93D4
:1000E600EFB75394EFBFE99118950A921A926A9363
:1000F6007A938A939A93AA93BA93EA93FA93EFB769
:10010600EA93E7B5FE2FE0E0DF01E6B5F0E0EA0F9F
:10011600FB1F4F01A52DE0E0EA9FF001E80DF91D58
:10012600E619F7095F0166277727A0E4B2E48FE0B6
:1001360090E00E94A303E0936B01F0936C0160933F
:100146006D0170936E0155243401E991EFBFF99169
:10015600E991B991A99199918991799169911990AA
:1001660009901895EFEFE4BBE0E0E5BBE1BBE0E406
:10017600E2BBE0E0EFBDE2E4EEBDE0E0EDBDECBDEC
:10018600E7BDE6BDEBBDEABDE9BDE8BDE4E2E9BF1A
:10019600E0E8E8B9E0E0E0BFA0E10E940A03789455
:1001A600EFE6F1E0FA93EA93E6E6F0E0FA93EA93F3
:1001B600E0916B01F0916C010E949E030E94D003B6
:1001C60084E00E946F022896E2E0EA93A0E00E9493
:1001D600C302A0E6B1E00E94F902E4E0EA93A1E0DE
:1001E6000E94C302AFE6B1E00E94F902D9CFFFCF69
:1001F600BA93AA931A930A93AA81BB8112960E9474
:10020600C803309759F1AA81BB8114960E94C8038E
:100216008F01309761F00230E0E01E0798F0F80198
:1002260031978F01AA81BB811496ED93FC93AA8125
:10023600BB811296ED91FD913196FE93EE93319727
:10024600AC81A083AA81BB810E94C803FF232AF048
:10025600ED91FD913196FE93EE9306C0AA81BB8186
:10026600EFEFFFEFED93FC93198108812596089532
:10027600BA93AA9326970E94D50310E0AC85BD8554
:10028600E0E0F0E0ED93FC93EA89FB893196EA8B96
:10029600FB8B3197E4912E2FE03009F415C1E12F45
:1002A600E03039F4253211F411E002C00E94520305
:1002B6000AC1E130A9F4253219F40E94520302C1A1
:1002C60012E040E000E02D3211F401E0FCC02B32D8
:1002D60011F44BE2F8C0203211F440E2F4C002C03F
:1002E600E23039F450E013E0203311F40068EBC03B
:1002F60003C0E33009F0E7C0203310F02A3308F0DA
:1003060007C0AAE05A9F502DE22FE0535E0FDBC0D4
:10031600E22FE33649F40E945903E889F989A4815A
:10032600AA930E945F03CEC0E33741F40E945903AB
:100336000E9465030E9439031E2F0AC0E03761F44C
:100346000E9459030E9465030E9445031E2F086000
:1003560002600F7730E034C0E43611F0E93611F46C
:10036600046002C0E53731F4E4E5F0E0EE83FF8394
:1003760015E00CC0E83511F4086003C0E83709F051
:10038600A1C0EEE5F0E0EE83FF8314E002FF14C0A7
:100396000E9459030E946F03AB85AA233AF4EA85AB
:1003A600FB850E949A03EA87FB874DE2403011F0F5
:1003B6001F5F01C00B7F04C00E9459030E946F0398
:1003C60000FD11C0151778F407FF08C002FF04C02E
:1003D6000B7F242F115001C020E301C020E20E94B0
:1003E60052035150EFCF312F01FF17C03030A1F02B
:1003F60003FF06C0EE81FF812591EE83FF8305C0D2
:10040600AE81BF812D91AE83BF830E9452035030CF
:1004160009F051503150EACF4BC020E3EE81FF8105
:100426000E94CC03E887F987EE81FF813296EE833E
:10043600FF83E885F985AA85BB85AE17BF0750F00F
:100446002F5FA885B985EA85FB85EA1BFB0BEA8742
:10045600FB87EFCF2A3328F003FF02C0295F01C0D4
:10046600295D04FD1AC0213320F4A885B9851197AA
:1004760009F409C0531710F000FF01C013C020E2B1
:1004860007FF0BC020E3006102FF07C00B7F4A9302
:100496000E945F03503009F051500E9452035030C1
:1004A60009F051503150A885B985129708F0B5CF9B
:1004B60000FF08C0503031F05150E0E2EA930E944C
:1004C6005F03F8CF10E0E0CEAC85BD850E94C8037F
:1004D6000E94DC0364960895FF92F82E26970E94E8
:1004E600D7030E947703309719F4EFEFFFEF23C08D
:1004F600DE0116960E9496038D010E947703EE8315
:10050600FF83E0E0E887E987DE011A960E949603FA
:100516000E94C803FA93EA931A930A93EBEFF0E06A
:10052600FA93EA93DE011A96A3DE9F01AE81BF819C
:10053600E0E0EC93F9010E94DE032A96FF9008950D
:10054600AA93E5B3EF70AE2FE881E07FEA2BE5BB17
:100556008DE08A95F1F7AA9A8DE08A95F1F7AA9827
:100566008DE08A95F1F780C0AA93A881E9DFE8813A
:10057600E295E883A881E4DF85E88A95F1F774C0FF
:10058600AA93E881F0E0E158FE4FE081A981AE0F21
:10059600EBDF4980E881E093830122960895A2E08B
:1005A6000E947E03ACE0E0DFA1E00E947E03E0E073
:1005B600E09383014E2E0895AA93A881AA3021F0D4
:1005C600E09184014E1660F0E0E0EA93A091830189
:1005D600AF5FA0938301D4DFA881AA3009F444C099
:1005E6004394A89AA881C0DFA8983EC0BA93AA935C
:1005F6001A93A981BA81ED91A983BA831E2FE0309F
:1006060019F0A12FD9DFF5CF188123960895AA9363
:10061600E4B3E06FE4BBA29AA09AA19AAA98A8981C
:10062600A998E881E0938401E058E0938101E8818C
:10063600E054E0938201A4E1B0E00E948C030E94A2
:1006460084030E9484030E948403A0E279DF88EC7D
:1006560090E00197F1F7A8E287DFA4E085DFA5E83F
:1006660083DFA6E081DF9BDF21960895BA93AA93E4
:10067600A991B991EE27FF276D91662311F0319666
:10068600FBCF0895BA93AA93AA27BB27E991F991BC
:100696000590002011F01196FBCFFD0108952A93D5
:1006A600AD85BE85EF85F88909950895E889F989AC
:1006B6003497E88BF98B0895AD85BE85EF85F8896B
:1006C60009950895A889B98914960E94C803EE83EE
:1006D600FF83AE81BF810895A889B98914960E94C7
:1006E600C803EA87FB870895DE011C960E949603DD
:1006F6000E94C80308950E94B702A3E0B0E00C94DC
:100706008C03A0E30E94A30288EC90E00197F1F726
:100716000895109639F080ED97E00197F1F7A895C6
:100726001197C9F708950024AF0DB01D0895F195EE
:10073600E195F04008956F2F660F660B762F0895AA
:100746003F934F935F93002411244427552730E2AB
:10075600AA0FBB1F881F991F001C111C441F551F81
:100766000E1A1F0A460B570B28F40E0E1F1E461FA5
:10077600571F01C0A1603A9559F7FD01BC01D00190
:10078600CA015F914F913F910895ED91FC911197A8
:1007960008950590F491E02D08957A936A93FA935B
:1007A600EA9308955A934A933A932A931A930A938B
:1007B60008955D814C813B812A81198108810895C4
:00000001FF
