:0E0000000C9445000C9400000C9400000C942D
:10000E0000000C9400000C9478000C9400000C94EA
:10001E0000000C9472000C9400000C9400000C94E0
:10002E0000000C9400000C9400000C9400000C9442
:10003E0000000C9400000C9400000C9400000C9432
:10004E0000000C9400001027E80364000A00010071
:10005E00001000011000010025642028487A2900B4
:10006E004672657175656E6379203A0080C00C002A
:10007E0060016E00020080017A000000F894EE2705
:10008E00ECBBF1E0FBBFEBBFE5BF8DE0A2E0BB2711
:10009E00ED938A95E9F780E094E0A0E6ED93019761
:1000AE00E9F7ECE7F0E085919591009761F0A59165
:1000BE00B59105901590BF01F00105900D92019735
:1000CE00E1F7FB01F0CFEFE5EDBFE4E0EEBFC0E6F8
:1000DE00D1E00C94B900EA93EFB75394EFBFE991D6
:1000EE0018950A921A926A937A938A939A93AA937C
:1000FE00BA93EA93FA93EFB7EA93EEB5A0E4EA2740
:10010E00EEBDE7B5FE2FE0E0DF01E6B5F0E0EA0F69
:10011E00FB1F4F01A52DE0E0EA9FF001E80DF91D50
:10012E00E619F7095F0166277727A0E4B2E48FE0AE
:10013E0090E00E94A703E0936C01F0936D01609331
:10014E006E0170936F0155243401E991EFBFF9915F
:10015E00E991B991A99199918991799169911990A2
:10016E0009901895EFEFE4BBE0E0E5BBE1BBE0E4FE
:10017E00E2BBE0E0EFBDE2E4EEBDE0E0EDBDECBDE4
:10018E00E7BDE6BDEBBDEABDE9BDE8BDE4E2E9BF12
:10019E00E0E8E8B9E0E0E0BFA0E10E940E03789449
:1001AE00E0E7F1E0FA93EA93E6E6F0E0FA93EA93F9
:1001BE00E0916C01F0916D010E94A2030E94D403A4
:1001CE0084E00E9473022896E2E0EA93A0E00E9487
:1001DE00C702A0E6B1E00E94FD02E4E0EA93A1E0CE
:1001EE000E94C702A0E7B1E00E94FD02D9CFFFCF67
:1001FE00BA93AA931A930A93AA81BB8112960E946C
:10020E00CC03309759F1AA81BB8114960E94CC037E
:10021E008F01309761F00230E0E01E0798F0F80190
:10022E0031978F01AA81BB811496ED93FC93AA811D
:10023E00BB811296ED91FD913196FE93EE9331971F
:10024E00AC81A083AA81BB810E94CC03FF232AF03C
:10025E00ED91FD913196FE93EE9306C0AA81BB817E
:10026E00EFEFFFEFED93FC9319810881259608952A
:10027E00BA93AA9326970E94D90310E0AC85BD8548
:10028E00E0E0F0E0ED93FC93EA89FB893196EA8B8E
:10029E00FB8B3197E4912E2FE03009F415C1E12F3D
:1002AE00E03039F4253211F411E002C00E945603F9
:1002BE000AC1E130A9F4253219F40E94560302C195
:1002CE0012E040E000E02D3211F401E0FCC02B32D0
:1002DE0011F44BE2F8C0203211F440E2F4C002C037
:1002EE00E23039F450E013E0203311F40068EBC033
:1002FE0003C0E33009F0E7C0203310F02A3308F0D2
:10030E0007C0AAE05A9F502DE22FE0535E0FDBC0CC
:10031E00E22FE33649F40E945D03E889F989A4814E
:10032E00AA930E946303CEC0E33741F40E945D039B
:10033E000E9469030E943D031E2F0AC0E03761F43C
:10034E000E945D030E9469030E9449031E2F0860EC
:10035E0002600F7730E034C0E43611F0E93611F464
:10036E00046002C0E53731F4E4E5F0E0EE83FF838C
:10037E0015E00CC0E83511F4086003C0E83709F049
:10038E00A1C0EEE5F0E0EE83FF8314E002FF14C09F
:10039E000E945D030E947303AB85AA233AF4EA859B
:1003AE00FB850E949E03EA87FB874DE2403011F0E9
:1003BE001F5F01C00B7F04C00E945D030E94730388
:1003CE0000FD11C0151778F407FF08C002FF04C026
:1003DE000B7F242F115001C020E301C020E20E94A8
:1003EE0056035150EFCF312F01FF17C03030A1F01F
:1003FE0003FF06C0EE81FF812591EE83FF8305C0CA
:10040E00AE81BF812D91AE83BF830E9456035030C3
:10041E0009F051503150EACF4BC020E3EE81FF81FD
:10042E000E94D003E887F987EE81FF813296EE8332
:10043E00FF83E885F985AA85BB85AE17BF0750F007
:10044E002F5FA885B985EA85FB85EA1BFB0BEA873A
:10045E00FB87EFCF2A3328F003FF02C0295F01C0CC
:10046E00295D04FD1AC0213320F4A885B9851197A2
:10047E0009F409C0531710F000FF01C013C020E2A9
:10048E0007FF0BC020E3006102FF07C00B7F4A93FA
:10049E000E946303503009F051500E9456035030B1
:1004AE0009F051503150A885B985129708F0B5CF93
:1004BE0000FF08C0503031F05150E0E2EA930E9444
:1004CE006303F8CF10E0E0CEAC85BD850E94CC036F
:1004DE000E94E00364960895FF92F82E26970E94DC
:1004EE00DB030E947B03309719F4EFEFFFEF23C07D
:1004FE00DE0116960E949A038D010E947B03EE8305
:10050E00FF83E0E0E887E987DE011A960E949A03EE
:10051E000E94CC03FA93EA931A930A93EFEFF0E05A
:10052E00FA93EA93DE011A96A3DE9F01AE81BF8194
:10053E00E0E0EC93F9010E94E2032A96FF90089501
:10054E00AA93E5B3EF70AE2FE881E07FEA2BE5BB0F
:10055E008DE08A95F1F7AA9A8DE08A95F1F7AA981F
:10056E008DE08A95F1F780C0AA93A881E9DFE88132
:10057E00E295E883A881E4DF85E88A95F1F774C0F7
:10058E00AA93E881F0E0E058FE4FE081A981AE0F1A
:10059E00EBDF4980E881E093840122960895A2E082
:1005AE000E948203ACE0E0DFA1E00E948203E0E063
:1005BE00E09384014E2E0895AA93A881AA3021F0CB
:1005CE00E09185014E1660F0E0E0EA93A09184017F
:1005DE00AF5FA0938401D4DFA881AA3009F444C090
:1005EE004394A89AA881C0DFA8983EC0BA93AA9354
:1005FE001A93A981BA81ED91A983BA831E2FE03097
:10060E0019F0A12FD9DFF5CF188123960895AA935B
:10061E00E4B3E06FE4BBA29AA09AA19AAA98A89814
:10062E00A998E881E0938501E058E0938201E88182
:10063E00E054E0938301A4E1B0E00E9490030E9495
:10064E0088030E9488030E948803A0E279DF88EC69
:10065E0090E00197F1F7A8E287DFA4E085DFA5E837
:10066E0083DFA6E081DF9BDF21960895BA93AA93DC
:10067E00A991B991EE27FF276D91662311F031965E
:10068E00FBCF0895BA93AA93AA27BB27E991F991B4
:10069E000590002011F01196FBCFFD0108952A93CD
:1006AE00AD85BE85EF85F88909950895E889F989A4
:1006BE003497E88BF98B0895AD85BE85EF85F88963
:1006CE0009950895A889B98914960E94CC03EE83E2
:1006DE00FF83AE81BF810895A889B98914960E94BF
:1006EE00CC03EA87FB870895DE011C960E949A03CD
:1006FE000E94CC0308950E94BB02A3E0B0E00C94CC
:10070E009003A0E30E94A70288EC90E00197F1F716
:10071E000895109639F080ED97E00197F1F7A895BE
:10072E001197C9F708950024AF0DB01D0895F195E6
:10073E00E195F04008956F2F660F660B762F0895A2
:10074E003F934F935F93002411244427552730E2A3
:10075E00AA0FBB1F881F991F001C111C441F551F79
:10076E000E1A1F0A460B570B28F40E0E1F1E461F9D
:10077E00571F01C0A1603A9559F7FD01BC01D00188
:10078E00CA015F914F913F910895ED91FC911197A0
:10079E0008950590F491E02D08957A936A93FA9353
:1007AE00EA9308955A934A933A932A931A930A9383
:1007BE0008955D814C813B812A81198108810895BC
:00000001FF
