:020000000C945E
:1000020045000C9400000C9400000C9400000C9429
:1000120000000C9400000C9400000C9400000C945E
:1000220000000C9400000C9400000C9400000C944E
:1000320000000C9400000C9400000C9400000C943E
:1000420000000C9400000C9400000C9400000C942E
:1000520000001027E80364000A00010000100001FC
:100062001000010025642028487A29004672657133
:1000720075656E6379203A0080C00C0060016E00E5
:10008200020080017A000000F894EE27ECBBF1E058
:10009200FBBFEBBFE5BF8DE0A2E0BB27ED938A95E6
:1000A200E9F780E094E0A0E6ED930197E9F7ECE749
:1000B200F0E085919591009761F0A591B591059039
:1000C2001590BF01F00105900D920197E1F7FB0138
:1000D200F0CFEFE5EDBFE4E0EEBFC0E6D1E00C9477
:1000E2007200EFEFE4BBE0E0E5BBEFBDE1E4EEBDA3
:1000F200E0E0EDBDECBDE7BDE6BDEBBDEABDE9BDAF
:10010200E8BDE0E8E8B9E0E0E0BFA0E10E94FF025C
:10011200E0E0EFBDE0E0F0E0FDBDECBDE0E2E8BF15
:10012200E1E4EEBDE8B7E5FFFDCF0E9447032F01F2
:10013200E0E2E8BFE1E0EEBDE8B7E5FFFDCF0E94F7
:1001420047034F01E0E2E8BFE1E4EEBDE8B7E5FFB7
:10015200FDCF0E9447033F01E0E2E8BFE0E0EEBDD1
:1001620046145704E0F5F301E419F5095F01662727
:100172007727A0E0B2E18AE790E00E94A103E09332
:100182006C01F0936D0160936E0170936F01E0E773
:10019200F1E0FA93EA93E6E6F0E0FA93EA93E0916B
:1001A2006C01F0916D010E949C030E94CE0384E0D9
:1001B2000E946A0228960E94CB02E2E0EA93A0E043
:1001C2000E94BE02A0E6B1E00E94EE02E4E0EA93E1
:1001D200A1E00E94BE02A0E7B1E00E94EE02A4EFFD
:1001E200B1E00E948A0394CFFFCFBA93AA931A93E5
:1001F2000A93AA81BB8112960E94C603309759F1D5
:10020200AA81BB8114960E94C6038F01309761F0C8
:100212000230E0E01E0798F0F80131978F01AA81C1
:10022200BB811496ED93FC93AA81BB811296ED914A
:10023200FD913196FE93EE933197AC81A083AA8112
:10024200BB810E94C603FF232AF0ED91FD913196F6
:10025200FE93EE9306C0AA81BB81EFEFFFEFED9311
:10026200FC931981088125960895BA93AA9326973B
:100272000E94D30310E0AC85BD85E0E0F0E0ED9391
:10028200FC93EA89FB893196EA8BFB8B3197E491E7
:100292002E2FE03009F415C1E12FE03039F4253278
:1002A20011F411E002C00E9450030AC1E130A9F426
:1002B200253219F40E94500302C112E040E000E02E
:1002C2002D3211F401E0FCC02B3211F44BE2F8C0E4
:1002D200203211F440E2F4C002C0E23039F450E0BE
:1002E20013E0203311F40068EBC003C0E33009F0DF
:1002F200E7C0203310F02A3308F007C0AAE05A9F63
:10030200502DE22FE0535E0FDBC0E22FE33649F4BB
:100312000E945703E889F989A481AA930E945D0388
:10032200CEC0E33741F40E9457030E9463030E9448
:100332002E031E2F0AC0E03761F40E9457030E9469
:1003420063030E943A031E2F086002600F7730E0B9
:1003520034C0E43611F0E93611F4046002C0E53726
:1003620031F4E4E5F0E0EE83FF8315E00CC0E835FC
:1003720011F4086003C0E83709F0A1C0EEE5F0E02F
:10038200EE83FF8314E002FF14C00E9457030E9411
:100392006D03AB85AA233AF4EA85FB850E94980394
:1003A200EA87FB874DE2403011F01F5F01C00B7FEF
:1003B20004C00E9457030E946D0300FD11C015176F
:1003C20078F407FF08C002FF04C00B7F242F1150EE
:1003D20001C020E301C020E20E9450035150EFCF40
:1003E200312F01FF17C03030A1F003FF06C0EE81AC
:1003F200FF812591EE83FF8305C0AE81BF812D91E0
:10040200AE83BF830E945003503009F051503150E7
:10041200EACF4BC020E3EE81FF810E94CA03E88746
:10042200F987EE81FF813296EE83FF83E885F985B5
:10043200AA85BB85AE17BF0750F02F5FA885B98587
:10044200EA85FB85EA1BFB0BEA87FB87EFCF2A33A2
:1004520028F003FF02C0295F01C0295D04FD1AC014
:10046200213320F4A885B985119709F409C05317DF
:1004720010F000FF01C013C020E207FF0BC020E311
:10048200006102FF07C00B7F4A930E945D03503058
:1004920009F051500E945003503009F05150315030
:1004A200A885B985129708F0B5CF00FF08C0503073
:1004B20031F05150E0E2EA930E945D03F8CF10E080
:1004C200E0CEAC85BD850E94C6030E94DA03649625
:1004D2000895FF92F82E26970E94D5030E94750375
:1004E200309719F4EFEFFFEF23C0DE0116960E945A
:1004F20094038D010E947503EE83FF83E0E0E88799
:10050200E987DE011A960E9494030E94C603FA93B9
:10051200EA931A930A93E6EFF0E0FA93EA93DE0184
:100522001A96A3DE9F01AE81BF81E0E0EC93F90150
:100532000E94DC032A96FF900895AA93E5B3EF7018
:10054200AE2FE881E07FEA2BE5BB8DE08A95F1F7DB
:10055200AA9A8DE08A95F1F7AA988DE08A95F1F72B
:100562007AC0AA93A881E9DFE881E295E883A881AD
:10057200E4DF85E88A95F1F76EC0AA93E881F0E09E
:10058200E058FE4FE081A981AE0FEBDFD980C88031
:1005920022960895A2E00E947C03ACE0E2DFA1E093
:1005A2000E947C03E0E0CE2EDE2E0895AA93A8815D
:1005B200AA3021F0E0918401DE1648F0E0E0EA93EF
:1005C200C394AC2DDADFA881AA3009F444C0D394D5
:1005D200A89AA881C6DFA8983EC0BA93AA931A9394
:1005E200A981BA81ED91A983BA831E2FE03019F057
:1005F200A12FDCDFF5CF188123960895AA93E4B3E7
:10060200E06FE4BBA29AA09AA19AAA98A898A99886
:10061200E881E0938401E058E0938201E881E054AC
:10062200E0938301A4E1B0E00E948A030E94820366
:100632000E9482030E948203A0E27FDF88EC90E0A6
:100642000197F1F7A8E28DDFA4E08BDFA5E889DF4F
:10065200A6E087DF9FDF21960895BA93AA93A99116
:10066200B991EE27FF276D91662311F03196FBCFEA
:100672000895BA93AA93AA27BB27E991F991059005
:10068200002011F01196FBCFFD010895E7B5FE2F72
:10069200E0E0DF01E6B5F0E0EA0FFB1F08952A93E0
:1006A200AD85BE85EF85F88909950895E889F989B0
:1006B2003497E88BF98B0895AD85BE85EF85F8896F
:1006C20009950895A889B98914960E94C603EE83F4
:1006D200FF83AE81BF810895A889B98914960E94CB
:1006E200C603EA87FB870895DE011C960E949403E5
:1006F2000E94C60308950E94B202A3E0B0E00C94E7
:100702008A03A0E30E949E0288EC90E00197F1F731
:100712000895109639F080ED97E00197F1F7A895CA
:100722001197C9F708950024AF0DB01D0895F195F2
:10073200E195F04008956F2F660F660B762F0895AE
:100742003F934F935F93002411244427552730E2AF
:10075200AA0FBB1F881F991F001C111C441F551F85
:100762000E1A1F0A460B570B28F40E0E1F1E461FA9
:10077200571F01C0A1603A9559F7FD01BC01D00194
:10078200CA015F914F913F910895ED91FC911197AC
:1007920008950590F491E02D08957A936A93FA935F
:1007A200EA9308955A934A933A932A931A930A938F
:1007B20008955D814C813B812A81198108810895C8
:00000001FF
