:060000000C943E000C947C
:1000060000000C9400000C9400000C9400000C946A
:1000160000000C9400000C9400000C9479000C94E1
:100026006B000C9400000C9400000C9400000C94DF
:1000360000000C9400000C9400000C9400000C943A
:1000460000000C9400000C9400000C940000FFFFCC
:100056003F065B4F666D7D077F67FE00FD00FB0078
:1000660011010200040054000A0060015600080055
:100076006A0160000000F894EE27ECBBF1E0FBBFDC
:10008600EBBFE5BF8DE0A2E0BB27ED938A95E9F7CC
:1000960080E094E0A0E6ED930197E9F7E8E6F0E06A
:1000A60085919591009761F0A591B5910590159070
:1000B600BF01F00105900D920197E1F7FB01F0CF2A
:1000C600EFE5EDBFE4E0EEBFC0E6D1E00C94D90069
:1000D600EA93FA93EFB7EA93E2EBE2BFF3013196C4
:1000E6003F01E991EFBFF991E99118950A921A92A9
:1000F600FA926A937A938A939A93AA93BA93EA9313
:10010600FA93EFB7EA93EBE0EDBDEBEDECBDE0E182
:10011600F7E24E165F0624F4F20131962F0102C073
:1001260044245524D2010ED0E991EFBFF991E9910B
:10013600B991A9919991899179916991F9901990BB
:1001460009901895BA93AA931A930A9300E010E0BF
:100156000430E0E01E0734F5F801AAE6B1E0EE0F40
:10016600FF1FAE0FBF1FEC91E5BBAA81BB81EAE082
:10017600F0E00E941F01E05AFE4FE081E2BBABE4D3
:10018600B0E00E94F900E1E0E5BBE0E0E2BBAA8155
:10019600BB81EAE0F0E00E941A01EA83FB830F5F6D
:1001A6001F4FD6CF1981088124960895EFE0E4BB4E
:1001B600E5BBEFEFE1BBE0E0E2BBE5E0E3BFE2EB8E
:1001C600E2BFE0E0ECBFEFBDE3E0EEBDEBE0EDBD8E
:1001D600EBEDECBDE0E0E7BDE6BDEBBDEABDE9BD9C
:1001E600E8BDE5E0E9BF7894FFCFFFCF109639F080
:1001F60080ED97E00197F1F7A8951197C9F7089553
:10020600F195E195F04008950024112490E1AA0F9C
:10021600BB1F001C111C0E1A1F0A18F40E0E1F1EFF
:1002260001C0A1609A9599F7FD01D001089512D0F9
:10023600EBDF0EF4E5DF0895E894B7FF04C0A09560
:10024600B09511966894F7FDDBDFDEDFFD010EF455
:10025600D7DF0895E894F7FF02C0D2DF6894B7FFAE
:1002660006C0A095B095119600F8039400FA08957B
:00000001FF
