:080000000C9432000C94000086
:100008000C9400000C9400000C9400000C94000068
:100018000C9400000C9400000C9400000C945F00F9
:100028000C9400000C9400000C9400000C94000048
:100038000C9400000C9400000C9400000C94000038
:100048000C9400000C9400000C94000000000000C8
:10005800010001000800040054000000F894EE2795
:10006800ECBBF1E0FBBFEBBFE5BF8DE0A2E0BB2737
:10007800ED938A95E9F780E094E0A0E6ED93019787
:10008800E9F7ECE5F0E085919591009761F0A5918D
:10009800B59105901590BF01F00105900D9201975B
:1000A800E1F7FB01F0CFEFE5EDBFE4E0EEBFC0E61E
:1000B800D1E00C94ED000A921A92FA926A937A931C
:1000C8008A939A93AA93BA93EA93FA93EFB7EA9327
:1000D800E8E3E2BFF20131962F01E4E6F0E0E4152F
:1000E800F50509F066C09A995EC0062C072861F5E7
:1000F800E1E0F0E0E815F90579F45F01F5013196E2
:100108005F01319739F07ED0D501EAE1F0E00E9435
:100118003801F4CF88249924082C092891F4E9E1BE
:10012800F0E05F01F50131975F01319639F06AD04F
:10013800D501E0E0F0E00E943E01F4CFE1E0F0E01C
:100148004F01E1E0F0E03F01E1E0F0E0E615F705FE
:1001580049F5E815F90579F45F01F50131965F0174
:10016800319739F063D0D501EAE1F0E00E94380117
:10017800F4CF88249924082C092891F4E9E1F0E0C7
:100188005F01F50131975F01319639F04FD0D50104
:10019800E0E0F0E00E943E01F4CFE1E0F0E04F0142
:1001A80066247724A0CF9A9B02C0E0E0EBBB4424EE
:1001B8005524E8E3E2BFE991EFBFF991E991B991DC
:1001C800A9919991899179916991F99019900990DA
:1001D8001895EFE0EABBE0E0EBBBE4BBE4E0E5BB8D
:1001E800E1E0E3BFE8E3E2BFE0E0ECBFE1E0E9BF64
:1001F800E0E8E8B9E0E0E0BFE6B9EDB9E6BF789439
:10020800FFCFFFCFE9E0EBBBD5010E942E01EAE06A
:10021800EBBBD5010E942E01E6E0EBBBD5010E94A5
:100228002E01E5E0EBBBD5010C942E01E5E0EBBB1C
:10023800D5010E942E01E6E0EBBBD5010E942E01FC
:10024800EAE0EBBBD5010E942E01E9E0EBBBD5014A
:100258000C942E01109639F088EE93E00197F1F78F
:10026800A8951197C9F70895AE17BF07E1E00CF0FC
:10027800EE270895EA17FB07E1E00CF0EE27089552
:00000001FF
